{
  "contractName": "EduChain",
  "abi": [
    {
      "anonymous": false,
      "inputs": [
        {
          "indexed": false,
          "internalType": "uint256",
          "name": "certificateId",
          "type": "uint256"
        },
        {
          "indexed": false,
          "internalType": "address",
          "name": "student",
          "type": "address"
        },
        {
          "indexed": false,
          "internalType": "uint256",
          "name": "courseId",
          "type": "uint256"
        },
        {
          "indexed": false,
          "internalType": "uint256",
          "name": "timestamp",
          "type": "uint256"
        }
      ],
      "name": "CertificateIssued",
      "type": "event"
    },
    {
      "anonymous": false,
      "inputs": [
        {
          "indexed": false,
          "internalType": "uint256",
          "name": "courseId",
          "type": "uint256"
        },
        {
          "indexed": false,
          "internalType": "address",
          "name": "student",
          "type": "address"
        }
      ],
      "name": "CourseCompleted",
      "type": "event"
    },
    {
      "anonymous": false,
      "inputs": [
        {
          "indexed": false,
          "internalType": "uint256",
          "name": "courseId",
          "type": "uint256"
        },
        {
          "indexed": false,
          "internalType": "address",
          "name": "teacher",
          "type": "address"
        },
        {
          "indexed": false,
          "internalType": "string",
          "name": "title",
          "type": "string"
        },
        {
          "indexed": false,
          "internalType": "uint256",
          "name": "price",
          "type": "uint256"
        }
      ],
      "name": "CourseCreated",
      "type": "event"
    },
    {
      "anonymous": false,
      "inputs": [
        {
          "indexed": false,
          "internalType": "uint256",
          "name": "courseId",
          "type": "uint256"
        },
        {
          "indexed": false,
          "internalType": "address",
          "name": "student",
          "type": "address"
        }
      ],
      "name": "CourseEnrollment",
      "type": "event"
    },
    {
      "anonymous": false,
      "inputs": [
        {
          "indexed": false,
          "internalType": "uint256",
          "name": "courseId",
          "type": "uint256"
        },
        {
          "indexed": false,
          "internalType": "address",
          "name": "student",
          "type": "address"
        },
        {
          "indexed": false,
          "internalType": "uint256",
          "name": "moduleIndex",
          "type": "uint256"
        }
      ],
      "name": "ModuleCompleted",
      "type": "event"
    },
    {
      "anonymous": false,
      "inputs": [
        {
          "indexed": true,
          "internalType": "address",
          "name": "previousOwner",
          "type": "address"
        },
        {
          "indexed": true,
          "internalType": "address",
          "name": "newOwner",
          "type": "address"
        }
      ],
      "name": "OwnershipTransferred",
      "type": "event"
    },
    {
      "inputs": [
        {
          "internalType": "uint256",
          "name": "",
          "type": "uint256"
        }
      ],
      "name": "certificates",
      "outputs": [
        {
          "internalType": "uint256",
          "name": "id",
          "type": "uint256"
        },
        {
          "internalType": "address",
          "name": "student",
          "type": "address"
        },
        {
          "internalType": "uint256",
          "name": "courseId",
          "type": "uint256"
        },
        {
          "internalType": "uint256",
          "name": "timestamp",
          "type": "uint256"
        },
        {
          "internalType": "bool",
          "name": "issued",
          "type": "bool"
        }
      ],
      "stateMutability": "view",
      "type": "function",
      "constant": true
    },
    {
      "inputs": [
        {
          "internalType": "uint256",
          "name": "",
          "type": "uint256"
        }
      ],
      "name": "courses",
      "outputs": [
        {
          "internalType": "uint256",
          "name": "id",
          "type": "uint256"
        },
        {
          "internalType": "address",
          "name": "teacher",
          "type": "address"
        },
        {
          "internalType": "string",
          "name": "title",
          "type": "string"
        },
        {
          "internalType": "string",
          "name": "description",
          "type": "string"
        },
        {
          "internalType": "uint256",
          "name": "price",
          "type": "uint256"
        },
        {
          "internalType": "string",
          "name": "contentUrl",
          "type": "string"
        },
        {
          "internalType": "uint256",
          "name": "moduleCount",
          "type": "uint256"
        }
      ],
      "stateMutability": "view",
      "type": "function",
      "constant": true
    },
    {
      "inputs": [],
      "name": "owner",
      "outputs": [
        {
          "internalType": "address",
          "name": "",
          "type": "address"
        }
      ],
      "stateMutability": "view",
      "type": "function",
      "constant": true
    },
    {
      "inputs": [],
      "name": "renounceOwnership",
      "outputs": [],
      "stateMutability": "nonpayable",
      "type": "function"
    },
    {
      "inputs": [
        {
          "internalType": "address",
          "name": "",
          "type": "address"
        },
        {
          "internalType": "uint256",
          "name": "",
          "type": "uint256"
        }
      ],
      "name": "studentCertificates",
      "outputs": [
        {
          "internalType": "uint256",
          "name": "",
          "type": "uint256"
        }
      ],
      "stateMutability": "view",
      "type": "function",
      "constant": true
    },
    {
      "inputs": [
        {
          "internalType": "address",
          "name": "",
          "type": "address"
        },
        {
          "internalType": "uint256",
          "name": "",
          "type": "uint256"
        }
      ],
      "name": "studentCourses",
      "outputs": [
        {
          "internalType": "uint256",
          "name": "",
          "type": "uint256"
        }
      ],
      "stateMutability": "view",
      "type": "function",
      "constant": true
    },
    {
      "inputs": [
        {
          "internalType": "uint256",
          "name": "",
          "type": "uint256"
        },
        {
          "internalType": "address",
          "name": "",
          "type": "address"
        }
      ],
      "name": "studentProgress",
      "outputs": [
        {
          "internalType": "bool",
          "name": "isEnrolled",
          "type": "bool"
        },
        {
          "internalType": "uint256",
          "name": "completedModuleCount",
          "type": "uint256"
        },
        {
          "internalType": "bool",
          "name": "coursePassed",
          "type": "bool"
        }
      ],
      "stateMutability": "view",
      "type": "function",
      "constant": true
    },
    {
      "inputs": [
        {
          "internalType": "address",
          "name": "",
          "type": "address"
        },
        {
          "internalType": "uint256",
          "name": "",
          "type": "uint256"
        }
      ],
      "name": "teacherCourses",
      "outputs": [
        {
          "internalType": "uint256",
          "name": "",
          "type": "uint256"
        }
      ],
      "stateMutability": "view",
      "type": "function",
      "constant": true
    },
    {
      "inputs": [
        {
          "internalType": "address",
          "name": "newOwner",
          "type": "address"
        }
      ],
      "name": "transferOwnership",
      "outputs": [],
      "stateMutability": "nonpayable",
      "type": "function"
    },
    {
      "inputs": [
        {
          "internalType": "string",
          "name": "_title",
          "type": "string"
        },
        {
          "internalType": "string",
          "name": "_description",
          "type": "string"
        },
        {
          "internalType": "uint256",
          "name": "_price",
          "type": "uint256"
        },
        {
          "internalType": "string",
          "name": "_contentUrl",
          "type": "string"
        },
        {
          "internalType": "uint256",
          "name": "_moduleCount",
          "type": "uint256"
        }
      ],
      "name": "createCourse",
      "outputs": [
        {
          "internalType": "uint256",
          "name": "",
          "type": "uint256"
        }
      ],
      "stateMutability": "nonpayable",
      "type": "function"
    },
    {
      "inputs": [
        {
          "internalType": "uint256",
          "name": "_courseId",
          "type": "uint256"
        }
      ],
      "name": "enrollInCourse",
      "outputs": [],
      "stateMutability": "payable",
      "type": "function",
      "payable": true
    },
    {
      "inputs": [
        {
          "internalType": "uint256",
          "name": "_courseId",
          "type": "uint256"
        },
        {
          "internalType": "uint256",
          "name": "_moduleIndex",
          "type": "uint256"
        }
      ],
      "name": "completeModule",
      "outputs": [],
      "stateMutability": "nonpayable",
      "type": "function"
    },
    {
      "inputs": [
        {
          "internalType": "uint256",
          "name": "_courseId",
          "type": "uint256"
        }
      ],
      "name": "issueCertificate",
      "outputs": [],
      "stateMutability": "nonpayable",
      "type": "function"
    },
    {
      "inputs": [],
      "name": "getCourseCount",
      "outputs": [
        {
          "internalType": "uint256",
          "name": "",
          "type": "uint256"
        }
      ],
      "stateMutability": "view",
      "type": "function",
      "constant": true
    },
    {
      "inputs": [
        {
          "internalType": "address",
          "name": "_teacher",
          "type": "address"
        }
      ],
      "name": "getTeacherCourses",
      "outputs": [
        {
          "internalType": "uint256[]",
          "name": "",
          "type": "uint256[]"
        }
      ],
      "stateMutability": "view",
      "type": "function",
      "constant": true
    },
    {
      "inputs": [
        {
          "internalType": "address",
          "name": "_student",
          "type": "address"
        }
      ],
      "name": "getStudentCourses",
      "outputs": [
        {
          "internalType": "uint256[]",
          "name": "",
          "type": "uint256[]"
        }
      ],
      "stateMutability": "view",
      "type": "function",
      "constant": true
    },
    {
      "inputs": [
        {
          "internalType": "address",
          "name": "_student",
          "type": "address"
        }
      ],
      "name": "getStudentCertificates",
      "outputs": [
        {
          "internalType": "uint256[]",
          "name": "",
          "type": "uint256[]"
        }
      ],
      "stateMutability": "view",
      "type": "function",
      "constant": true
    },
    {
      "inputs": [
        {
          "internalType": "uint256",
          "name": "_courseId",
          "type": "uint256"
        },
        {
          "internalType": "address",
          "name": "_student",
          "type": "address"
        }
      ],
      "name": "getStudentProgress",
      "outputs": [
        {
          "internalType": "bool",
          "name": "isEnrolled",
          "type": "bool"
        },
        {
          "internalType": "uint256",
          "name": "completedModules",
          "type": "uint256"
        },
        {
          "internalType": "bool",
          "name": "coursePassed",
          "type": "bool"
        }
      ],
      "stateMutability": "view",
      "type": "function",
      "constant": true
    },
    {
      "inputs": [
        {
          "internalType": "uint256",
          "name": "_certificateId",
          "type": "uint256"
        },
        {
          "internalType": "address",
          "name": "_student",
          "type": "address"
        },
        {
          "internalType": "uint256",
          "name": "_courseId",
          "type": "uint256"
        }
      ],
      "name": "verifyCertificate",
      "outputs": [
        {
          "internalType": "bool",
          "name": "",
          "type": "bool"
        }
      ],
      "stateMutability": "view",
      "type": "function",
      "constant": true
    }
  ],
  "bytecode": "0x608060405234801561001057600080fd5b5061001a3361001f565b61006f565b600080546001600160a01b038381166001600160a01b0319831681178455604051919092169283917f8be0079c531659141344cd1fd0a4f28419497f9722a3daafe3b4186f6b6457e09190a35050565b61168b8061007e6000396000f3fe6080604052600436106101145760003560e01c806396f979d2116100a0578063d80fa7cf11610064578063d80fa7cf146103ee578063e5ef24ea1461040e578063ebc63bc01461042e578063f2fde38b1461044e578063fd95cc511461046e57600080fd5b806396f979d214610304578063ad31950314610337578063c3934f0e14610357578063c990a16014610377578063d40761e4146103ce57600080fd5b8063715018a6116100e7578063715018a61461025557806376aaf1881461026a5780638867abfd1461029a5780638da5cb5b146102c757806396cfda06146102ef57600080fd5b80630d41adc6146101195780632c73ecd7146101895780635e52da27146101b7578063663b3e22146101cc575b600080fd5b34801561012557600080fd5b5061016561013436600461112c565b600460209081526000928352604080842090915290825290208054600282015460039092015460ff91821692911683565b60408051931515845260208401929092521515908201526060015b60405180910390f35b34801561019557600080fd5b506101a96101a4366004611158565b61048e565b604051908152602001610180565b6101ca6101c5366004611182565b6104bf565b005b3480156101d857600080fd5b506102236101e7366004611182565b6005602052600090815260409020805460018201546002830154600384015460049094015492936001600160a01b039092169290919060ff1685565b604080519586526001600160a01b0390941660208601529284019190915260608301521515608082015260a001610180565b34801561026157600080fd5b506101ca61069d565b34801561027657600080fd5b5061028a61028536600461119b565b6106b1565b6040519015158152602001610180565b3480156102a657600080fd5b506102ba6102b53660046111d0565b6106fa565b60405161018091906111f2565b3480156102d357600080fd5b506000546040516001600160a01b039091168152602001610180565b3480156102fb57600080fd5b506101a9610766565b34801561031057600080fd5b5061032461031f366004611182565b610776565b604051610180979695949392919061127c565b34801561034357600080fd5b506101ca6103523660046112e7565b610953565b34801561036357600080fd5b506101a9610372366004611158565b610b2c565b34801561038357600080fd5b5061016561039236600461112c565b60009182526004602090815260408084206001600160a01b0393909316845291905290208054600282015460039092015460ff91821693911690565b3480156103da57600080fd5b506102ba6103e93660046111d0565b610b48565b3480156103fa57600080fd5b506101ca610409366004611182565b610bb2565b34801561041a57600080fd5b506101a96104293660046113ac565b610e21565b34801561043a57600080fd5b506102ba6104493660046111d0565b610f67565b34801561045a57600080fd5b506101ca6104693660046111d0565b610fd1565b34801561047a57600080fd5b506101a9610489366004611158565b61104a565b600660205281600052604060002081815481106104aa57600080fd5b90600052602060002001600091509150505481565b60008181526003602052604090208054821461051a5760405162461bcd60e51b815260206004820152601560248201527410dbdd5c9cd948191bd95cc81b9bdd08195e1a5cdd605a1b60448201526064015b60405180910390fd5b80600401543410156105655760405162461bcd60e51b8152602060048201526014602482015273125b9cdd59999a58da595b9d081c185e5b595b9d60621b6044820152606401610511565b600082815260046020908152604080832033845290915290205460ff16156105c25760405162461bcd60e51b815260206004820152601060248201526f105b1c9958591e48195b9c9bdb1b195960821b6044820152606401610511565b6000828152600460209081526040808320338452909152808220805460ff199081166001908117835560028301859055600383018054909216909155840154915190926001600160a01b0392909216913480156108fc02929091818181858888f19350505050158015610639573d6000803e3d6000fd5b503360008181526007602090815260408083208054600181018255908452928290209092018690558151868152908101929092527feb6a967bb56534131f25362df334c81fd66a80398cbef8eecabc2f339ede103c910160405180910390a1505050565b6106a5611066565b6106af60006110c0565b565b6000838152600560205260408120600481015460ff1680156106e2575060018101546001600160a01b038581169116145b80156106f15750828160020154145b95945050505050565b6001600160a01b03811660009081526006602090815260409182902080548351818402810184019094528084526060939283018282801561075a57602002820191906000526020600020905b815481526020019060010190808311610746575b50505050509050919050565b600061077160015490565b905090565b60036020526000908152604090208054600182015460028301805492936001600160a01b03909216926107a890611446565b80601f01602080910402602001604051908101604052809291908181526020018280546107d490611446565b80156108215780601f106107f657610100808354040283529160200191610821565b820191906000526020600020905b81548152906001019060200180831161080457829003601f168201915b50505050509080600301805461083690611446565b80601f016020809104026020016040519081016040528092919081815260200182805461086290611446565b80156108af5780601f10610884576101008083540402835291602001916108af565b820191906000526020600020905b81548152906001019060200180831161089257829003601f168201915b5050505050908060040154908060050180546108ca90611446565b80601f01602080910402602001604051908101604052809291908181526020018280546108f690611446565b80156109435780601f1061091857610100808354040283529160200191610943565b820191906000526020600020905b81548152906001019060200180831161092657829003601f168201915b5050505050908060060154905087565b6000828152600460209081526040808320338452909152902054829060ff1661098e5760405162461bcd60e51b815260040161051190611480565b6000838152600360205260409020600681015483106109e65760405162461bcd60e51b8152602060048201526014602482015273092dcecc2d8d2c840dadec8ead8ca40d2dcc8caf60631b6044820152606401610511565b60008481526004602090815260408083203384528252808320868452600181019092529091205460ff1615610a5d5760405162461bcd60e51b815260206004820152601860248201527f4d6f64756c6520616c726561647920636f6d706c6574656400000000000000006044820152606401610511565b6000848152600182810160205260408220805460ff1916909117905560028201805491610a89836114ce565b9091555050604080518681523360208201529081018590527f859adbf10698893f15138e2567fbad174c1c5c86574d7573038f4d379ef8a3709060600160405180910390a18160060154816002015403610b255760038101805460ff19166001179055604080518681523360208201527f5bc083177651ab30489541022f7c6061da5d7d2157ea382267ea584eac645782910160405180910390a15b5050505050565b600860205281600052604060002081815481106104aa57600080fd5b6001600160a01b03811660009081526007602090815260409182902080548351818402810184019094528084526060939283018282801561075a57602002820191906000526020600020908154815260200190600101908083116107465750505050509050919050565b6000818152600460209081526040808320338452909152902054819060ff16610bed5760405162461bcd60e51b815260040161051190611480565b60008281526004602090815260408083203384529091529020600381015460ff16610c5a5760405162461bcd60e51b815260206004820152601860248201527f436f75727365206e6f7420636f6d706c657465642079657400000000000000006044820152606401610511565b60005b33600090815260086020526040902054811015610d1a57336000908152600860205260408120805483908110610c9557610c956114f5565b9060005260206000200154905084600560008381526020019081526020016000206002015403610d075760405162461bcd60e51b815260206004820152601a60248201527f436572746966696361746520616c7265616479206973737565640000000000006044820152606401610511565b5080610d12816114ce565b915050610c5d565b50610d29600280546001019055565b6000610d3460025490565b6040805160a0810182528281523360208083018281528385018a815242606080870182815260016080808a0182815260008d815260058a528c81209b518c5597518b840180546001600160a01b0319166001600160a01b03909216919091179055955160028b0155915160038a015593516004909801805460ff1916981515989098179097558584526008855287842080549384018155845292849020909101879055855187815292830193909352938101899052928301529192507febe93d503409c593725e2c033f1ee7848704875a0a9385502fe50ba690575274910160405180910390a150505050565b6000808211610e7e5760405162461bcd60e51b8152602060048201526024808201527f436f75727365206d7573742068617665206174206c65617374206f6e65206d6f60448201526364756c6560e01b6064820152608401610511565b610e8c600180546001019055565b6000610e9760015490565b60008181526003602052604090208181556001810180546001600160a01b0319163317905590915060028101610ecd898261155a565b5060038101610edc888261155a565b506004810186905560058101610ef2868261155a565b5060068082018590553360008181526020928352604080822080546001810182559083529390912090920184905590517f27b444394f1a7b0aa73d468ff76433d70ccbd1517709b5a2b06eaf249a4ddcf091610f54918591908c908b9061161a565b60405180910390a1509695505050505050565b6001600160a01b03811660009081526008602090815260409182902080548351818402810184019094528084526060939283018282801561075a57602002820191906000526020600020908154815260200190600101908083116107465750505050509050919050565b610fd9611066565b6001600160a01b03811661103e5760405162461bcd60e51b815260206004820152602660248201527f4f776e61626c653a206e6577206f776e657220697320746865207a65726f206160448201526564647265737360d01b6064820152608401610511565b611047816110c0565b50565b600760205281600052604060002081815481106104aa57600080fd5b6000546001600160a01b031633146106af5760405162461bcd60e51b815260206004820181905260248201527f4f776e61626c653a2063616c6c6572206973206e6f7420746865206f776e65726044820152606401610511565b600080546001600160a01b038381166001600160a01b0319831681178455604051919092169283917f8be0079c531659141344cd1fd0a4f28419497f9722a3daafe3b4186f6b6457e09190a35050565b80356001600160a01b038116811461112757600080fd5b919050565b6000806040838503121561113f57600080fd5b8235915061114f60208401611110565b90509250929050565b6000806040838503121561116b57600080fd5b61117483611110565b946020939093013593505050565b60006020828403121561119457600080fd5b5035919050565b6000806000606084860312156111b057600080fd5b833592506111c060208501611110565b9150604084013590509250925092565b6000602082840312156111e257600080fd5b6111eb82611110565b9392505050565b6020808252825182820181905260009190848201906040850190845b8181101561122a5783518352928401929184019160010161120e565b50909695505050505050565b6000815180845260005b8181101561125c57602081850181015186830182015201611240565b506000602082860101526020601f19601f83011685010191505092915050565b8781526001600160a01b038716602082015260e0604082018190526000906112a690830188611236565b82810360608401526112b88188611236565b905085608084015282810360a08401526112d28186611236565b9150508260c083015298975050505050505050565b600080604083850312156112fa57600080fd5b50508035926020909101359150565b634e487b7160e01b600052604160045260246000fd5b600082601f83011261133057600080fd5b813567ffffffffffffffff8082111561134b5761134b611309565b604051601f8301601f19908116603f0116810190828211818310171561137357611373611309565b8160405283815286602085880101111561138c57600080fd5b836020870160208301376000602085830101528094505050505092915050565b600080600080600060a086880312156113c457600080fd5b853567ffffffffffffffff808211156113dc57600080fd5b6113e889838a0161131f565b965060208801359150808211156113fe57600080fd5b61140a89838a0161131f565b955060408801359450606088013591508082111561142757600080fd5b506114348882890161131f565b95989497509295608001359392505050565b600181811c9082168061145a57607f821691505b60208210810361147a57634e487b7160e01b600052602260045260246000fd5b50919050565b6020808252602e908201527f4f6e6c7920656e726f6c6c65642073747564656e74732063616e20706572666f60408201526d3936903a3434b99030b1ba34b7b760911b606082015260800190565b6000600182016114ee57634e487b7160e01b600052601160045260246000fd5b5060010190565b634e487b7160e01b600052603260045260246000fd5b601f82111561155557600081815260208120601f850160051c810160208610156115325750805b601f850160051c820191505b818110156115515782815560010161153e565b5050505b505050565b815167ffffffffffffffff81111561157457611574611309565b611588816115828454611446565b8461150b565b602080601f8311600181146115bd57600084156115a55750858301515b600019600386901b1c1916600185901b178555611551565b600085815260208120601f198616915b828110156115ec578886015182559484019460019091019084016115cd565b508582101561160a5787850151600019600388901b60f8161c191681555b5050505050600190811b01905550565b8481526001600160a01b038416602082015260806040820181905260009061164490830185611236565b90508260608301529594505050505056fea26469706673582212201af6d40ed9274573aeef992e8a8f88ecad04a0ff2ec3244ced8aaf15b100777364736f6c63430008110033",
  "immutableReferences": {},
  "source": "// SPDX-License-Identifier: MIT\npragma solidity ^0.8.0;\n\n// EduChain - Decentralized E-Learning Platform\nimport \"@openzeppelin/contracts/access/Ownable.sol\";\nimport \"@openzeppelin/contracts/utils/Counters.sol\";\n\ncontract EduChain is Ownable {\n    using Counters for Counters.Counter;\n    Counters.Counter private _courseIds;\n    Counters.Counter private _certificateIds;\n\n    struct Course {\n        uint256 id;\n        address teacher;\n        string title;\n        string description;\n        uint256 price;\n        string contentUrl;\n        uint256 moduleCount;\n    }\n\n    struct StudentProgress {\n        bool isEnrolled;\n        mapping(uint256 => bool) completedModules;\n        uint256 completedModuleCount;\n        bool coursePassed;\n    }\n\n    struct Certificate {\n        uint256 id;\n        address student;\n        uint256 courseId;\n        uint256 timestamp;\n        bool issued;\n    }\n\n    // Mappings\n    mapping(uint256 => Course) public courses;\n    mapping(uint256 => mapping(address => StudentProgress)) public studentProgress;\n    mapping(uint256 => Certificate) public certificates;\n    mapping(address => uint256[]) public teacherCourses;\n    mapping(address => uint256[]) public studentCourses;\n    mapping(address => uint256[]) public studentCertificates;\n\n    // Events\n    event CourseCreated(uint256 courseId, address teacher, string title, uint256 price);\n    event CourseEnrollment(uint256 courseId, address student);\n    event ModuleCompleted(uint256 courseId, address student, uint256 moduleIndex);\n    event CourseCompleted(uint256 courseId, address student);\n    event CertificateIssued(uint256 certificateId, address student, uint256 courseId, uint256 timestamp);\n\n    // Modifiers\n    modifier onlyTeacher(uint256 _courseId) {\n        require(courses[_courseId].teacher == msg.sender, \"Only the teacher can perform this action\");\n        _;\n    }\n\n    modifier onlyEnrolledStudent(uint256 _courseId) {\n        require(studentProgress[_courseId][msg.sender].isEnrolled, \"Only enrolled students can perform this action\");\n        _;\n    }\n\n    // Course Management Functions\n    function createCourse(\n        string memory _title,\n        string memory _description,\n        uint256 _price,\n        string memory _contentUrl,\n        uint256 _moduleCount\n    ) public returns (uint256) {\n        require(_moduleCount > 0, \"Course must have at least one module\");\n\n        _courseIds.increment();\n        uint256 newCourseId = _courseIds.current();\n\n        Course storage newCourse = courses[newCourseId];\n        newCourse.id = newCourseId;\n        newCourse.teacher = msg.sender;\n        newCourse.title = _title;\n        newCourse.description = _description;\n        newCourse.price = _price;\n        newCourse.contentUrl = _contentUrl;\n        newCourse.moduleCount = _moduleCount;\n\n        teacherCourses[msg.sender].push(newCourseId);\n\n        emit CourseCreated(newCourseId, msg.sender, _title, _price);\n        return newCourseId;\n    }\n\n    function enrollInCourse(uint256 _courseId) public payable {\n        Course storage course = courses[_courseId];\n        require(course.id == _courseId, \"Course does not exist\");\n        require(msg.value >= course.price, \"Insufficient payment\");\n        require(!studentProgress[_courseId][msg.sender].isEnrolled, \"Already enrolled\");\n\n        // Initialize the student progress\n        StudentProgress storage progress = studentProgress[_courseId][msg.sender];\n        progress.isEnrolled = true;\n        progress.completedModuleCount = 0;\n        progress.coursePassed = false;\n\n        // Send payment to the teacher\n        payable(course.teacher).transfer(msg.value);\n\n        // Add course to student's courses\n        studentCourses[msg.sender].push(_courseId);\n\n        emit CourseEnrollment(_courseId, msg.sender);\n    }\n\n    // Module Completion Functions\n    function completeModule(uint256 _courseId, uint256 _moduleIndex) public onlyEnrolledStudent(_courseId) {\n        Course storage course = courses[_courseId];\n        require(_moduleIndex < course.moduleCount, \"Invalid module index\");\n        \n        StudentProgress storage progress = studentProgress[_courseId][msg.sender];\n        require(!progress.completedModules[_moduleIndex], \"Module already completed\");\n\n        progress.completedModules[_moduleIndex] = true;\n        progress.completedModuleCount++;\n\n        emit ModuleCompleted(_courseId, msg.sender, _moduleIndex);\n\n        // Check if all modules are completed\n        if (progress.completedModuleCount == course.moduleCount) {\n            progress.coursePassed = true;\n            emit CourseCompleted(_courseId, msg.sender);\n        }\n    }\n\n    // Certificate Functions\n    function issueCertificate(uint256 _courseId) public onlyEnrolledStudent(_courseId) {\n        StudentProgress storage progress = studentProgress[_courseId][msg.sender];\n        require(progress.coursePassed, \"Course not completed yet\");\n        \n        // Check if student already has a certificate for this course\n        for (uint256 i = 0; i < studentCertificates[msg.sender].length; i++) {\n            uint256 certId = studentCertificates[msg.sender][i];\n            if (certificates[certId].courseId == _courseId) {\n                revert(\"Certificate already issued\");\n            }\n        }\n\n        _certificateIds.increment();\n        uint256 newCertificateId = _certificateIds.current();\n\n        certificates[newCertificateId] = Certificate({\n            id: newCertificateId,\n            student: msg.sender,\n            courseId: _courseId,\n            timestamp: block.timestamp,\n            issued: true\n        });\n\n        studentCertificates[msg.sender].push(newCertificateId);\n\n        emit CertificateIssued(newCertificateId, msg.sender, _courseId, block.timestamp);\n    }\n\n    // Getter Functions\n    function getCourseCount() public view returns (uint256) {\n        return _courseIds.current();\n    }\n\n    function getTeacherCourses(address _teacher) public view returns (uint256[] memory) {\n        return teacherCourses[_teacher];\n    }\n\n    function getStudentCourses(address _student) public view returns (uint256[] memory) {\n        return studentCourses[_student];\n    }\n\n    function getStudentCertificates(address _student) public view returns (uint256[] memory) {\n        return studentCertificates[_student];\n    }\n\n    function getStudentProgress(uint256 _courseId, address _student) public view returns (bool isEnrolled, uint256 completedModules, bool coursePassed) {\n        StudentProgress storage progress = studentProgress[_courseId][_student];\n        return (progress.isEnrolled, progress.completedModuleCount, progress.coursePassed);\n    }\n\n    function verifyCertificate(uint256 _certificateId, address _student, uint256 _courseId) public view returns (bool) {\n        Certificate storage cert = certificates[_certificateId];\n        return (cert.issued && cert.student == _student && cert.courseId == _courseId);\n    }\n} ",
  "sourcePath": "/home/b25k/Desktop/educhain/contracts/EduChain.sol",
  "compiler": {
    "name": "solc",
    "version": "0.8.17+commit.8df45f5f.Emscripten.clang"
  },
  "schemaVersion": "3.4.16",
  "updatedAt": "2025-05-15T20:44:28.333Z",
  "networkType": "ethereum",
  "devdoc": {
    "kind": "dev",
    "methods": {
      "owner()": {
        "details": "Returns the address of the current owner."
      },
      "renounceOwnership()": {
        "details": "Leaves the contract without owner. It will not be possible to call `onlyOwner` functions. Can only be called by the current owner. NOTE: Renouncing ownership will leave the contract without an owner, thereby disabling any functionality that is only available to the owner."
      },
      "transferOwnership(address)": {
        "details": "Transfers ownership of the contract to a new account (`newOwner`). Can only be called by the current owner."
      }
    },
    "version": 1
  },
  "userdoc": {
    "kind": "user",
    "methods": {},
    "version": 1
  }
}